:020000041000EA
:1000000000B5324B212058609868022188439860DF
:10001000D860186158612E4B002199600221596106
:100020000121F02299502B49196001219960352056
:1000300000F044F80222904214D00621196600F024
:1000400034F8196E01211966002018661A6600F04E
:100050002CF8196E196E196E052000F02FF8012189
:100060000842F9D1002199601B49196000215960AB
:100070001A491B48016001219960EB211966A021F2
:10008000196600F012F800219960164914480160C1
:100090000121996001BC002800D000471248134993
:1000A000086003C880F30888084703B5996A0420EC
:1000B0000142FBD001200142F8D103BD02B5186610
:1000C0001866FFF7F2FF186E186E02BD00000240BE
:1000D000000000180000070000035F00212200005C
:1000E000F4000018222000A00001001008ED00E03C
:1000F00000000000000000000000000074B24E7A12
:1001000000200420F7010010CB010010CD010010E9
:10011000C9010010C9010010C9010010C901001077
:10012000C9010010C9010010C9010010CF01001061
:10013000C9010010C9010010D1010010D301001045
:10014000C1010010C1010010C1010010C101001067
:10015000C1010010C1010010C1010010C101001057
:10016000C1010010C1010010C1010010C101001047
:10017000C1010010C1010010C1010010C101001037
:10018000C1010010C1010010C1010010C101001027
:10019000C1010010C1010010C1010010C101001017
:1001A000C1010010C1010010C1010010C101001007
:1001B000C1010010C1010010C1010010C1010010F7
:1001C000EFF30580103800BE00BE00BE00BE00BECA
:1001D00000BE00BEF2EB8871E0FA021004FB0210D0
:1001E0003802001090A31AE71E481F49086006C88D
:1001F00081F3088810471D480068002801D019487D
:10020000F3E70DA40ECC002902D000F012F8F9E7B4
:100210001749184A002000E001C19142FCD116495B
:100220008847164988471649884700BEFDE701C937
:1002300001C29A42FBD3704704FB0210C0000020A9
:1002400088280020CC220310000004200000042095
:10025000CC22031000100420001004200000000035
:10026000704700000000000008ED00E0000000D032
:10027000882800201C1D022029500010D5020010E3
:10028000E94F0010F8B5C04606480749091A8B1017
:10029000C90FC91810B5491003D0044B002B00D06A
:1002A000984710BD88280020882800200000000002
:1002B000054B10B5002B03D00449054800E000BFF2
:1002C000FFF7E2FF10BDC04600000000B81B02208F
:1002D000B47E0210F0B5DE4657464E464546E0B5C0
:1002E0008BB005F021F88E4801F096FE8D4805F0A0
:1002F00069F88D4C8D49200007F0A4FD03210E20E4
:1003000001F072F803210F2001F06EF800220121A4
:100310000E2001F083F8002201210F2001F07EF869
:100320003C23402280210194009304A8002300F084
:1003300089FE04A800F0A0FE002104A800F0CAFF76
:1003400004A800F081FF00F02DFA041E04D0210063
:10035000774805F0BBF8FEE700F066FE754B01003C
:10036000180005F0B3F802A80294039400F008FE08
:10037000050003A800F012FE8146002D00D1B8E070
:10038000002800D1B5E0039A02996B4805F09EF869
:1003900000F012FE071C00F019FE060000F020FE1F
:1003A000824600F027FE8346381C03F049F8009689
:1003B00002000B00614805F089F8504603F040F850
:1003C0000B005946020000915D4805F07FF85D4B37
:1003D000984606E07F20C423285501349B009C42A8
:1003E00019D04346185D02F0D0FF574902F067FF6D
:1003F000391C02F064FF27F08FFC30187F28E9DCFD
:1004000003008033E7DA8020C423404228550134BA
:100410009B009C42E5D100F0F7FD041E6DD14B46D8
:1004200000229A565B7801255BB29A4201DB1300E9
:1004300005004A46927852B2934263DB1A004B465B
:10044000DB785BB29A4261DB13004A46127952B202
:10045000934259DB1A004B465B795BB29A425DDBF3
:1004600013004A46927952B2934255DB1A004B462A
:10047000DB795BB29A424DDB13004A46127A52B2E4
:10048000934245DB1A004B465B7A5BB2934200DD38
:10049000092506212D4805F019F829002C4805F0FA
:1004A00015F82C4E4B461D575B46E81A02F072FFBA
:1004B000514602F018FF02F0C3FF2A00009001919C
:1004C00021003000013405F001F80A2CEAD10021A6
:1004D00004A800F0FFFE04A812233222414600F0D7
:1004E00037FF04A800F0B0FEFA20800001F094FD70
:1004F000FAE7194804F066FFFEE72100174804F008
:10050000E5FFFEE702259AE70425A4E703259CE71B
:100510000825B8E70725B0E70625A8E70525A0E7E1
:1005200088130000C07E021088210020801A060077
:10053000E47E0210FC7E0210307F0210547F021015
:100540006C7F02107CBF021000007F43987F021076
:10055000AC7F0210BC7F0210187F0210847F021053
:100560007047C0467047C046030020292FD0E422C0
:100570008258002A2BD0806981422AD0012A26D0B5
:10058000586B81422CD0022A21D0186D814229D08B
:10059000032A1CD0D86E814226D0042A17D0882086
:1005A0001858814222D0052A11D0A420185881421F
:1005B0001ED0062A0BD0C020185881421AD0072A14
:1005C00005D0DC229A5800208A4215D070470020BE
:1005D000FCE70022D000801A800004301818F5E7EC
:1005E0000122F7E70222F5E70322F3E70422F1E70D
:1005F0000522EFE70622EDE70722EBE794225200FF
:1006000082580300002A31D0E820185881422FD0A8
:10061000012A2BD0EC20185881422ED0022A25D056
:10062000F020185881422AD0032A1FD0F4201858ED
:10063000814226D0042A19D0F8201858814222D0AD
:10064000052A13D0FC20185881421ED0062A0DD04E
:10065000802040001858814219D0072A06D08222F3
:1006600052009A5800208A4213D070470020FCE7BD
:10067000002242329200D058F7E70122F9E7022225
:10068000F7E70322F5E70422F3E70522F1E7062264
:10069000EFE70722EDE7C04610B502480DF002FD76
:1006A00010BDC046940B0220E42370B5C558040069
:1006B0000E00002D54D08369202B53D0012D4FD034
:1006C000636B202B55D0022D4AD0236D202B58D0A0
:1006D000032D45D0E36E202B1AD0042D40D0882363
:1006E000E358202B21D0052D3AD0A423E358202B0A
:1006F00024D0062D34D0C023E358202B27D0072D3B
:100700002ED0DC23E3580025202B42D0280070BDDA
:100710003100206F25F0F2F80028DED10323DD0040
:10072000ED1AAD0004356519F0E76C333100E0587F
:1007300025F0E4F80028D6D10423F0E7883331000F
:10074000E05825F0DBF80028D3D10523E7E7A433F0
:100750003100E05825F0D2F80028D0D10623DEE79A
:100760000025D3E7C06925F0C9F80028A6D10023E9
:10077000D5E73100A06B25F0C1F80028A3D10123F3
:10078000CDE73100606D25F0B9F80028A0D1022333
:10079000C5E7C033E058310025F0B0F80723002842
:1007A000B4D1BCE7C04BF0B547469846CE4642466A
:1007B00080B5BE4DBE4B8DB02800136018F076F8A2
:1007C000BC4C002800D0AEE305AD280008F02CFD9D
:1007D000E423E358002B00D1C8E3A269032A00D127
:1007E00053E2012B00D12DE2626B032A00D14CE2CF
:1007F000022B00D126E2226D032A00D145E2032B11
:1008000000D11FE2E26E032A00D13EE2042B00D1A8
:1008100018E28822A258032A00D136E2052B00D123
:1008200010E2A422A258032A00D12EE2062B00D106
:1008300008E2C022A258032A00D126E2072B00D1E9
:1008400000E2DC23E358032B00D11EE203219A4887
:100850000EF02CFB082199480EF028FB28000AF026
:100860007DFDE423E358002B00D17CE3A269282A14
:1008700000D15EE2012B00D186E2626B282A00D112
:1008800057E2022B00D17FE2226D282A00D150E2EC
:10089000032B00D178E2E26E282A00D149E2042B32
:1008A00000D171E28822A258282A00D141E2052B0A
:1008B00000D169E2A422A258282A00D139E2062BED
:1008C00000D161E2C022A258282A00D131E2072BD0
:1008D00000D159E2DC23E358282B00D129E228215A
:1008E00075480EF0E3FA082174480EF0DFFA28008C
:1008F00009F01AFAE423E358002B00D130E3A2698F
:10090000092A00D10DE2012B00D11AE2626B092AFB
:1009100000D106E2022B00D113E2226D092A00D198
:10092000FFE1032B00D10CE2E26E092A00D1F8E1CD
:10093000042B00D105E28822A258092A00D1F0E157
:10094000052B00D1FDE1A422A258092A00D1E8E13B
:10095000062B00D1F5E1C022A258092A00D1E0E11E
:10096000072B00D1EDE1DC23E358092B00D1D8E1BE
:10097000092151480EF09AFA082150480EF096FAD3
:10098000280009F0D5FBE423E358002B00D1E4E272
:10099000A269192A00D1BCE1012B00D13AE2626BB5
:1009A000192A00D1B5E1022B00D133E2226D192AB8
:1009B00000D1AEE1032B00D12CE2E26E192A00D166
:1009C000A7E1042B00D125E28822A258192A00D1E0
:1009D0009FE1052B00D11DE2A422A258192A00D1C3
:1009E00097E1062B00D115E2C022A258192A00D1A6
:1009F0008FE1072B00D10DE2DC23E358192B00D146
:100A000087E119212C480EF051FA08212B480EF0ED
:100A10004DFA28000BF07EFDE423E358002B00D1B3
:100A200098E2A269162A00D16BE1012B00D1CEE138
:100A3000626B162A00D164E1022B00D1C7E1226D5E
:100A4000162A00D15DE1032B00D1C0E1E26E162A27
:100A500000D156E1042B00D1B9E18822A258162A10
:100A600000D14EE1052B00D1B1E1A422A258162AF3
:100A700000D146E1062B00D1A9E1C022A258162AD6
:100A800000D13EE1072B00D1A1E1DC23E358162B76
:100A900000D136E1162108480EF008FA082107486F
:100AA0000EF004FA0CE0C0466C0B02205C0B022036
:100AB000CCC20210580C0220D07F02100480021019
:100AC000280009F0F5FFE423E358002B00D13EE2B3
:100AD000A269722A00D10CE1012B00D100E2626B05
:100AE000722A00D105E1022B00D1F9E1226D722AB0
:100AF00000D1FEE0032B00D1F2E1E26E722A00D1B8
:100B0000F7E0042B00D1EBE18822A258722A00D131
:100B1000EFE0052B00D1E3E1A422A258722A00D114
:100B2000E7E0062B00D1DBE1C022A258722A00D1F7
:100B3000DFE0072B00D1D3E1DC23E358722B00D197
:100B4000D7E07221D5480EF0B1F90821D4480EF053
:100B5000ADF9280009F070FDE423E358002B00D123
:100B6000F3E1A269062A00D197E0012B00D174E1DC
:100B7000626B062A00D190E0022B00D16DE1226D5C
:100B8000062A00D189E0032B00D166E1E26E062A35
:100B900000D182E0042B00D15FE18822A258062A0E
:100BA00000D17AE0052B00D157E1A422A258062AF1
:100BB00000D172E0062B00D14FE1C022A258062AD4
:100BC0006BD0072B00D148E1DC23E358062B64D01F
:100BD0000621B2480EF06AF90821B1480EF066F914
:100BE000B04F380017F062FE002863D1AE4DAF4C15
:100BF000280025600DF0D8FB002800D077E0002108
:100C000020680DF0EFF9AA4D0021286020680DF052
:100C100019FAA84B18602B68002B00D193E100282B
:100C200000D190E11B7F092B00D08AE1037F0620D1
:100C3000093B5A1E93415B4218400DB0C0BCB946F7
:100C4000B046F0BD5A1C9446DA00D31A9B00E31854
:100C5000181D02002900C1C9C1C2C1C9C1C20320F7
:100C600009681160942162469861E4234900E250CA
:100C700063581A003A329200A0501A008E4842324D
:100C800092000133A0506350E8E58C480EF00EF955
:100C900003218B480EF00AF9E0E588480EF006F9CA
:100CA000874806210EF002F97E4F380017F0FEFD4E
:100CB00000289BD0424611680022039202920192C2
:100CC000F022794D52027F4B0092280022000DF055
:100CD00029F97D4820F0F0FC380017F003FE734C32
:100CE000280025600DF060FB002800D187E7032075
:100CF000A3E772480EF0DAF8722171480EF0D6F8C8
:100D000027E76E480EF0D2F816216D480EF0CEF8A7
:100D1000D6E66A480EF0CAF8192169480EF0C6F8FE
:100D200077E666480EF0C2F8092165480EF0BEF875
:100D300026E662480EF0BAF8282161480EF0B6F8AF
:100D4000D5E55A1C9446DA00D31A9B00E318181D07
:100D500002002900C1C9C1C2C1C9C1C209200968B4
:100D60001160942162469861E4234900E25063587F
:100D70001A003A329200A0501A00544842329200AF
:100D80000133A0506350FBE55A1C9446DA00D31A95
:100D90009B00E318181D02002900C1C9C1C2C1C9C6
:100DA000C1C2282009681160942162469861E42339
:100DB0004900E25063581A003A329200A0501A00DB
:100DC0004348423292000133A05063508FE55A1CD1
:100DD0009446DA00D31A9B00E318181D020029007C
:100DE000C1C9C1C2C1C9C1C216200968116094211C
:100DF00062469861E4234900E25063581A003A328F
:100E00009200A0501A003348423292000133A050A1
:100E1000635055E65A1C9446DA00D31A9B00E31837
:100E2000181D02002900C1C9C1C2C1C9C1C219200F
:100E300009681160942162469861E4234900E250F8
:100E400063581A003A329200A0501A0022484232E7
:100E500092000133A0506350DBE55F1CDA00D31A27
:100E60009B00E318191D0A0043CD43C243CD43C282
:100E700006202968116094219861E4234900E75015
:100E800063581A003A329200A0501A0013484232B6
:100E900092000133A0506350A2E6C046D07F0210FA
:100EA00004800210580B0220940B0220640B0220D5
:100EB000680B0220600B0220CD8000101880021009
:100EC0004880021090280020990600102982001006
:100ED00071830010D1830010A984001025820010B6
:100EE0005A1C9446DA00D31A9B00E318181D02001E
:100EF0002900C1C9C1C2C1C9C1C27220096811603B
:100F0000942162469861E4234900E25063581A0034
:100F10003A329200A0501A00164842329200013331
:100F2000A050635015E6144BE422236000231348BD
:100F3000A3504432A35020F0BFFB280017F0D2FC8E
:100F400042E4052079E6042077E6012786E70122BE
:100F50009446C7E7012294463BE7012294465BE7AB
:100F600001229446EFE6012294460FE701229446BF
:100F70006AE6C0466D83001094C202106505001039
:100F8000054A03001068002804D0002B01D08269B4
:100F90001A6000697047C046680B0220054A0300CA
:100FA0001068002804D0002B01D082691A60006903
:100FB0007047C046600B0220034B1B68002B01D01A
:100FC000986870470020FCE7680B0220034B1B6801
:100FD000002B01D0D86870470020FCE7680B022086
:100FE000034B1B68002B01D0986870470020FCE77A
:100FF000600B0220034B1B68002B01D0D8687047A0
:101000000020FCE7600B0220064B10B51868002892
:1010100005D00DF059FB431E9841400010BD012042
:10102000FCE7C046640B0220054B10B51B68002B83
:1010300003D0D86E0CF008FF10BD01204042FBE742
:10104000640B022070B56B460400D00805041B7CBD
:10105000484312020A432A431B061A43059B0130E8
:10106000636001212260206102F048FA402303708E
:101070004033E060237570BD70B506000025AE23D7
:1010800082B014360400C178437532004068AC3B2E
:10109000009506F0FFFE2023E1786375320060685A
:1010A0001E3B009506F0F6FE0123E17863753200E1
:1010B00060680133009506F0EDFE4023E17863752A
:1010C000320060683E3B009506F0E4FEA123E17823
:1010D0006375320060689F3B009506F0DBFEA82335
:1010E000E178637532006068A63B009506F0D2FE99
:1010F0003F23E1786375320060683D3B009506F060
:10110000C9FEC823E178637532006068C63B00956C
:1011100006F0C0FED323E178637532006068D13BEE
:10112000009506F0B7FEE17832006068657502232D
:10113000009506F0AFFEDA23E1786375320060684F
:10114000D83B009506F0A6FE1223E17863753200C5
:101150006068103B009506F09DFED523E17863752D
:1011600032006068D33B009506F094FE8023E1785E
:101170006375320060687E3B009506F08BFED923D4
:10118000E178637532006068D73B009506F082FE17
:10119000F123E178637532006068EF3B009506F05B
:1011A00079FEDB23E178637532006068D93B0095F6
:1011B00006F070FE3023E1786375320060682E3BE4
:1011C000009506F067FE8123E17863753200606860
:1011D0007F3B009506F05EFEFF23E17863753200E9
:1011E0006068FD3B009506F055FEA423E178637529
:1011F00032006068A23B009506F04CFEA623E17821
:10120000637532006068A43B009506F043FE8D23B1
:10121000E1786375320060688B3B009506F03AFE1A
:101220001423E178637532006068123B009506F084
:1012300031FEAF23E1786375606832000095AD3B05
:1012400006F028FE02B070BD70B50600002521230F
:10125000040082B01436C1784375320040681F3BE9
:10126000009506F017FEE17832006068657502238C
:10127000009506F00FFE2378E178013B637532009C
:1012800060680223009506F005FE2223E17863756D
:1012900032006068203B009506F0FCFDE1783200EA
:1012A000606865750223009506F0F4FDA378E17887
:1012B000013B6375320060680223009506F0EAFD89
:1012C0002369E268E1786068009506F0E3FD02B00A
:1012D00070BDC0464378F0B5002B1FD00723002611
:1012E0009C460127047800291ED1002C16D06346A5
:1012F0003D0033409D400023ED43F2080132C468B5
:101300000133A15CDBB22940A154047808329C422D
:10131000F5D801364378F6B2B342E6D8F0BD0136CF
:101320004378F6B2B342F9D9002CF7D063463D00BA
:1013300033409D400023F2080132C4680133A15CB0
:10134000DBB22943A154047808329C42F5D8E6E781
:10135000F0B557464E464546DE469846531AE0B528
:101360000600D8B2CB239B009C4607230C009A466C
:1013700043461C348C44D9084A1C904652460121ED
:101380001A4091408B46C943220089461C3A811875
:10139000C9B2C900F768414489B27D18795C1778F1
:1013A000502F12D84F46013239402970A242EED157
:1013B00001331C381C34DBB2C0B26445DBD1F0BC55
:1013C000BB46B246A946A046F0BD5F46013239434E
:1013D00029709442DBD101331C381C34DBB2C0B21B
:1013E0006445C8D1EBE7C046094A83009A1810B596
:1013F00014684022544080322240064CC000A4466B
:1014000063441A60044B9C466044416010BDC04672
:1014100004C0014004D0014000400140074B80005F
:10142000C3181B68C90092000A435A400C2313409A
:10143000034A9446604403607047C04604C00140BC
:1014400004D001408023DB051868000F7047C046B8
:101450000FB400B5084883B003F0B4FF049B002B21
:1014600007D005A91800019103F04EFD034803F0D1
:10147000A9FF012003F060FD6C800210709D021036
:1014800070B5EFF3108C72B60D4D2B68002BFCD0AD
:10149000BFF35F8F0724CB08C618C05C01230C4044
:1014A000A3401C000440034207D118433070BFF32F
:1014B0005F8F2C608CF3108870BD1000FFF7C8FFA1
:1014C0002C0100D0F8B54746CE46884680B5EFF3EC
:1014D000108C72B61C4D2C68002CFCD0BFF35F8FB3
:1014E0009A4222D807210126894602E0013293421E
:1014F00018D34D4637001540AF40D4080119045D9C
:101500002742F3D110003C430C70BFF35F8F0022E1
:101510000D4B1A608CF3108800280EDBC0BCB94656
:10152000B046F8BD01204042EFE7BFF35F8F0023D4
:101530002B608CF31088012040424346002BEDD0F5
:101540000898FFF785FFC0462C0100D0044A1078A8
:10155000431CDBB2172B00D9102313707047C04611
:10156000CC20002010B5064B064C82B00100009341
:1015700018221F232000FFF7A5FF02B010BDC046B0
:101580007C800210381702200021044B044ABFF36C
:101590005F8F02C39342FAD17047C046000100D06A
:1015A000800100D0054B064A1360064A1360536061
:1015B0009360D36013615361936170478080808032
:1015C00000E400E004E400E01F2318401E3B8340D9
:1015D000002905D0C021044A4900535013607047C8
:1015E000802201498B50FAE700E100E001228240AD
:1015F000034B1B6813405A1E9341D8B27047C04634
:1016000000E100E001238340014A13607047C046B7
:1016100000E200E0064B10309B688000C358054A8A
:1016200000209B1A2F229A424041C0B27047C04608
:1016300000ED00E0D020002070B50D00EFF3108623
:1016400072B60F4A1368002BFCD0BFF35F8F0D4BAF
:1016500010309B6884001B590B4A934203D09D4273
:1016600001D001F033F8074B9B681D51BFF35F8F2A
:10167000BFF35F8F0022024B1A6086F3108870BDA3
:10168000240100D000ED00E0C1010010F0B5574684
:101690004E46DE464546E0B585B00600009117008F
:1016A000EFF3108B72B66A4A1368002BFCD0BFF3BD
:1016B0005F8F0025674B5D579A46002D00DAA9E041
:1016C0006B00654C01935B199B009846A146C14491
:1016D0004B4652469B7910361370604BB6009B68A0
:1016E00099590B1B2F2B33D95D4B994200D0ACE09D
:1016F000019B42469C465B4B6544AD0063535A4B8D
:101700000232A218043B9B1A1B05584A5B0D65194F
:1017100013436B80564B0121AB80FF23AB71009BC1
:10172000EF71AB604B460B4319004C4B9B689951D2
:10173000BFF35F8FBFF35F8F0022454B1A608BF3BF
:10174000108805B0F0BCBB46B246A946A046F0BD25
:1017500001200A008243D3798C46BB4231D84546EA
:10176000130044491B1B5B415943090D3D4B635317
:101770003D4B02356519043B5B1B1B053B4D5B0D67
:101780002B43AA464D466B800425AC465546E044A3
:10179000131F44441B1B1B055B0D1D434B469971D6
:1017A00000999D8099604946DF71334B0143136076
:1017B000BBE75800C01880002018C179B9422FD962
:1017C00002000623D356002BF3DA02932B4B61461B
:1017D0000393131D9A4604235B429C46E144504602
:1017E0004B461B1A1B055B0D9C46204B957198467A
:1017F0006346404603439380019B5A199200039B22
:10180000A418A380029B1C4AA371009B2260E7716D
:10181000A3608AE700F05AFF002553465D574FE763
:10182000908802934005131D9A46031561469C4615
:101830004046D444634604302018181AE0230005BB
:10184000400D1B0218430390C5E700F03FFF4FE730
:10185000240100D0161D0220D020002000ED00E061
:10186000C101001000A1FFFF0021002000E0FFFFE8
:1018700001BDFFFFAAAA00000148804701BD00008A
:1018800070B501240443EFF30581EFF3108C72B6B9
:10189000214A1368002BFCD0BFF35F8F1F4B05005C
:1018A0001F4AED1A6D416A43120D1E4D8900AE6844
:1018B00052B27658A6421CD00621595691421CD0ED
:1018C00012215956914222D01E215956914220D0C0
:1018D0002A2159560324914210D0134B19781A70BB
:1018E0008171BFF35F8F00220B4B1A608CF310885D
:1018F00070BDAB680D4C5C50EFE700246100091926
:1019000089005B18FF21997109499980E5E7012455
:10191000F4E70224F2E7C046240100D0D0200020E2
:10192000AAAA000000ED00E0161D0220C10100106F
:1019300001BDFFFF10B5084B084C82B001000093B9
:10194000002205232000FFF7BDFD002801DB1F2337
:10195000181A02B010BDC046988002101A1D02204D
:10196000024B9C466144890001607047400000348E
:1019700070B5114C114DAC420FD2FF262368002BDD
:101980000CD0FFF7E3FD01002000FFF7E9FFA68080
:10199000BFF35F8F0834AC42F0D370BDFFF7D6FDC4
:1019A00001002000FFF7DCFF2671BFF35F8F0834D2
:1019B000AC42E3D3F1E7C046782800208828002015
:1019C00010B50400FFF7C2FD01002000FFF7C8FFBB
:1019D000FF232371BFF35F8F10BDC04610B5040015
:1019E0000120FFF7BFFD034BC3189B002360BFF32B
:1019F0005F8F10BD40000034034B9C46614489005A
:101A00000160BFF35F8F7047400000340A4B1968D4
:101A1000EFF3108072B60A68002AFCD0BFF35F8F24
:101A20001B68BFF35F8F00221A6080F3108840BFED
:101A3000002000217047C046F41C0220F0B5DE46AD
:101A400057464E464546E0B587B0EFF3058303227F
:101A500001251A40954091008846A946B34B039250
:101A60005C58B34B1D60B34B04934B46B248436381
:101A70000823E55E002D37DAA3881BB2002B00DBBC
:101A8000ADE0A379002B00D0EEE00823E05E002853
:101A900020DB430062691B18DB00D3189E68DD68F9
:101AA000731C00D111E1A44801004144826A0B6912
:101AB000B71A9B1A9F4215D30123026A03988340E9
:101AC0001A420FD09C4800F0B5FB8D4202DCCCD10D
:101AD0008642CAD940BF07B0F0BCBB46B246A94651
:101AE000A046F0BD0E61EDE762696B0092465B199E
:101AF000DB009A4453469E68DF6800F09BFB8F42F0
:101B0000BADC00D103E1002F00DAE8E05246534688
:101B100052691B699346049A934200D1D9E0524618
:101B20000821605E5288000459461043984700908F
:101B300001910099019A0B001000134300D1CEE0EF
:101B400013000A00B61A9F41002806DB7A4800F00D
:101B500071FB009E019F36184F4153469E60DF6027
:101B600000229A5E002A00DA86E75300991860691D
:101B7000C900411802938B68C9689B46B94200DDD1
:101B80007AE702D1B34200D976E708239C46A44401
:101B9000059565462281A446029B2C0006E0530071
:101BA0009918C90041188D68C968AB469B18DB00BD
:101BB000C318B94206DC00D1B3E01C000023E25E8A
:101BC000002AECDA230064469C4653461A8063469A
:101BD000059D1D80A3881BB2002B00DA51E7226906
:101BE000EFF3108172B61368002BFCD0BFF35F8F48
:101BF0000123A7885B42A3803FB22369BFF35F8FB5
:101C000000221A6081F31088002F00DA39E72300E0
:101C1000083322009A4666697B00DB19DB00F31863
:101C2000996850468C460824115FDD68002910DB56
:101C3000029306E0AB4244D00023E15E200000297D
:101C400006DB4C006418E4003419E368AB42F1DDB4
:101C5000029B078000201F5E1980002FDCDA140031
:101C6000A379002B00D110E70023A37126000823DD
:101C7000E15E08364B1C00D12CE70800A2466569DE
:101C800002E03E004B1C1AD04B005B18DB00EF1843
:101C90000A008C46E95E7B881BB2002BF1DA012337
:101CA0005B42DC17BB60FC60824205D0534631804A
:101CB0001B893B8053461A8160464B1CE4D1544635
:101CC000E5E6A3686345B7D9C2E76B1C00D0EAE636
:101CD000F8E65B4658461B69984700281BD15346D7
:101CE0001B8822692381EFF3108372B611680029E3
:101CF000FCD0BFF35F8F514662880A8022696580FD
:101D0000BFF35F8F0021116083F31088B4E6864231
:101D100000D8F8E6B0E65B461A685B68009201936B
:101D200007E7B34500D848E74CE7C046D81B022078
:101D30003C7005403D1A00100040054070B52E4C27
:101D40002569002D04D00A212C48FFF709FE70BD3B
:101D50002B4E0321300000F063FAE660FFF7F6FB3C
:101D6000284B03229C46D02322701B061B680121AE
:101D70006370254B6044A3600F2380002061022024
:101D8000638063694942A180198002311986473115
:101D90001D83585218315A5275325C399952183293
:101DA0000131995218320131995218320131995248
:101DB000083518329D5202311832995218320131C9
:101DC0009952183201319952183201319952183210
:101DD000013199521832013199520C4B0C49DC6097
:101DE00001303562FFF728FC01210320FFF7ECFBEF
:101DF000084B1D60A7E7C04618210020F41C0220F4
:101E00000040054040000034FFFF1000D81B0220B6
:101E10003D1A001038600540004870471821002026
:101E2000F8B51F0008AB1B7804001600002B08D182
:101E300000F008FA32003B00121A8B41002B00DA46
:101E400052E02269EFF3108072B61368002BFCD0C9
:101E5000BFF35F8F0223E15E63694A005218D2002C
:101E60009B182269002936DB1D886580BFF35F8FD0
:101E70000025156080F31088069A9E60DF601A6165
:101E8000079A5A615A8801325204520C101C002AD7
:101E90001FD082B25880080410432669EFF31087E0
:101EA00072B63268002AFCD0BFF35F8FA2881A8016
:101EB000A1802369BFF35F8F00221A6087F3108827
:101EC0000A4923788C4601329A40E36863441A60D9
:101ED000F8BD0120DDE7BFF35F8F0023136080F3BF
:101EE000108801204042F3E70020F1E73C20000089
:101EF00070B501000469EFF3108C72B620680028F9
:101F0000FCD0BFF35F8F02200D5E4C696800401962
:101F1000C00024180869002D36DB26884E80BFF3E8
:101F20005F8F002606608CF31088E3606388049856
:101F3000013320615B0405985B0CA26060611A1C90
:101F4000002B1FD093B22804628018430A69EFF374
:101F5000108C72B61368002BFCD0BFF35F8F8B8898
:101F600023808D800B69BFF35F8F00221A608CF392
:101F700010880B7801329A40CB6808498C4663443C
:101F80001A6070BD0122DDE7BFF35F8F002303609D
:101F90008CF3108801204042F3E7C0463C2000004B
:101FA00010B543890A1493421ADD53009B18426905
:101FB000DB00D3180469EFF3108C72B62268002A94
:101FC000FCD0BFF35F8F5A88090494B2090C8A428F
:101FD00008D00369BFF35F8F00221A608CF310886A
:101FE000002010BD8022120214435C80012302698C
:101FF0008371BFF35F8F002111608CF31088044957
:1020000002788C469340C268012062441360E8E77E
:102010003C20000040787047F0B5C64600B582B05D
:10202000040000F00FF9FA2206000F002000002340
:102030000021920001F020F98019794104000D1E61
:1020400002DA01242E4D644206267642F71736192D
:102050006F41AF4214D811D000F0F4F832003B00C9
:10206000121A8B41002B15DC002B46D020002900D2
:1020700000F026F902B080BCB846F0BDA642EBD90C
:102080000026002700F0DEF832003B00121A8B41D8
:10209000002BE9DD00F0D6F832003B00121A8B412C
:1020A000002B0ADB00230193164B320000931648E5
:1020B0003B00FFF71DFF0130D8D000233900B046A8
:1020C0009C46124A1248536A994204D8966A464579
:1020D000CCD29942CAD10668EFF3108772B6336842
:1020E000002BFCD0BFF35F8F0368BFF35F8F6646A2
:1020F0001E6087F3108820BFE5E7002AB6D0C9E745
:10210000FFFFFF7F0D1A001018210020004005403E
:10211000F41C0220F0B557464E46DE464546E0B573
:1021200006000F0085B0EFF3058399468B46002B20
:1021300012D0384900204B6ABB4206D38A6ADB1BA7
:10214000591E8B41B2424041184305B0F0BCBB461A
:10215000B246A946A046F0BD2F4B9A46DB6898468A
:1021600053461B784046039300F064F84246039BB5
:10217000040004339B009B580D001B1A39003000EB
:10218000001BA941894510DC0DD020BF214A002049
:10219000536A5B45D9D3926ADB1B591E8B41B2420D
:1021A00040411843D1E78342EFD900F04BF83200A9
:1021B0003B00121A8B41002B1ADB00230193174BB3
:1021C0003200009350463B00FFF792FE011E0FDDE8
:1021D000104B5A6A5A451BD39B6AB34216D35046DA
:1021E000FFF7DEFE0B4A0020536A5B45ADD3D2E712
:1021F000084A0020536A5B45A7D30020926ADB1B84
:10220000B24240415A1E934118439EE75A45E6D1D7
:1022100020BFE4E700400540182100200D1A0010FF
:1022200010B5024A0248FFF72BF910BDB480021026
:102230003C1702200300416A0A00986A596A8A42E0
:10224000FAD17047034B596A0A00986A596A914259
:10225000FAD170470040054070B504000D00174AE0
:10226000536A1900966A536A8B42FAD130001900FA
:1022700024184D41AB4216D813D0104B2A005B6A8C
:102280009D4203D90D494B6A9342FCD3934207D137
:102290000A4A02E0516A994202D1916AA142F9D3F5
:1022A00070BDA642E9D9054B5B6A1C005A1CEFD0F1
:1022B000012201246442E5175242E3E70040054051
:1022C000064A536A9942FCD807D1044B02E05A6A85
:1022D000914202D19A6A9042F9D870470040054075
:1022E000F8B5DE464E4657464546E0B58B460500F6
:1022F0000A991800160000F061FB0A9B6C001F028F
:10230000324B64199C46A4006444636881469F4232
:1023100000D967602B1FDBB29846012B30D9C02350
:1023200080229B01E31812011A60294BAD00595914
:102330009A4600291BD17301E026226853401E40B3
:10234000802342465B01E3181E60012A30D98023B6
:1023500080229B01E31812011A6053464A466760C7
:102360005A51F0BCBB46B246A946A046F8BD5869D2
:1023700000F024FB013043001B18033BFDD2DAE7D9
:102380005B46012BCBD1C02303229B01E3181A60CB
:10239000023AA3681A42FCD07301E0262268AD001D
:1023A00053401E4080230A4A5B019246E3181E6098
:1023B0005A462168514003220A401A6001225B46B6
:1023C0009A40A3681A42FCD0C1E7C0460080004092
:1023D00040170220F0B546464F46D646C0B51F000E
:1023E000344B44009C462418A40064446368884627
:1023F0001600FF2B02D880235B006360031FDBB253
:102400009A46012B30D9C02380229B01E318120188
:102410001A60294B85005959994600291BD173012F
:10242000E026226853401E40802352465B01E31899
:102430001E60012A30D9802380229B01E3181201FB
:102440001A6080235B0063604B465F51E0BCBA4674
:10245000B146A846F0BD586900F0B0FA013043001B
:102460001B18033BFDD2DAE74346012BCBD1C02337
:1024700003229B01E3181A60023AA3681A42FCD0B7
:102480007301E0262268850053401E4080230A4ADB
:102490005B019146E3181E604246216851400322C9
:1024A0000A401A60012342469340A2681342FCD0BE
:1024B000C1E7C0460080004040170220014B800069
:1024C000C058704740170220F8B5040021481E008C
:1024D00017000D0000F072FA0100380000F06EFAEB
:1024E000069B36041B031E432368002B20DB1A4B7C
:1024F0001A49E3185A1E93418022920194465B4286
:102500001B0B174A1B0363441360164A13601F001A
:102510000A689743FBD1144B2560E2182123A06081
:1025200013602368002BFCDA0823E6601360F8BD13
:102530003F2322681340AB42D9D1A3681B051B0D72
:102540008342D4D1EE22E368D2021340B342CED10B
:10255000EDE7C046001BB7000040FDBF08C00040CB
:1025600000E0004000F000400430000010B580247E
:102570001C4BE4051C6000281AD001231A4C184398
:102580001A4BDC611A4C44401C62596298628021EB
:10259000144BC9051960174817490860E021C904A0
:1025A0001960002A07D18022144B12061A6010BD50
:1025B0000E4BD861EBE753019B1A9B009A188023BE
:1025C00012015B049A4209D213000D490B60074BBC
:1025D0005A608022094BD2051A60E8E7094B1A00BD
:1025E000F3E7C04600B00540D3C007B00080054007
:1025F0002D3FF84FFCFF01000820014000A00540DE
:10260000AC1B0220FFFFFF008023024A9B000B430C
:10261000D362704700800540002310B50100988AFE
:102620001B8B984710BDC046162310B501001888B3
:1026300002331B88984710BDF8B54746CE4680B593
:102640000F1E18D0142399460433040000250126D8
:1026500098464B461888434621681B88984701C412
:10266000431E984101350640AF42F2D13000C0BC54
:10267000B946B046F8BD0126F8E7C046002370B55C
:1026800004000D00988A05491B8B98470300002021
:10269000002C01DB0130A040290098475542000082
:1026A000AA23064A1B0113608D235B00D3600449F3
:1026B000044B19605368002BFCDA7047004002405D
:1026C00000B0FA00006002407047C04610B50148F3
:1026D000FEF7BEFED880021070B5074D074EB5421A
:1026E00009D20024013E761BB60808CD9847230086
:1026F0000134B342F9D170BD687E0210A47E02108D
:1027000070B5074D074EB54209D20024013E761B35
:10271000B60808CD984723000134B342F9D170BD03
:102720009C7E0210A47E0210054B064A06491A60E0
:10273000064A074B1A6010000B689843FBD170479C
:1027400000E00040BFCDFBFE08C00040FE7F3C0023
:1027500000F00040044BDB6C002B03D18022034BC4
:10276000D2021A607047C046000011504C20115030
:10277000044A054B1A60054A1368DB018033FBD11C
:102780007047C046FFFFFF0100F0004008C0004056
:102790004022034B9A675A671A67DA667047C04649
:1027A00000F0014010B5FEF7EFFE10BDF8B5274967
:1027B000274C284D641AA6103200302E00D9302242
:1027C0002800920000F0FAFEBC2C3BD830202F23CA
:1027D0002C196407204A801BE40F9B1B052B16D97C
:1027E0003700002C02D0B300771CEA50001B3319CD
:1027F0009B004108EB18C900C9181A605A600833D9
:102800009942FAD1012303421CD09843C619B30060
:10281000EA50731C2F2E15D09B00EA50B31C2E2EAD
:1028200010D09B00EA50F31C2D2E0BD09B00EA50D9
:10283000331D2C2E06D09B00EA50731D2B2E01D089
:102840009B00EA50054B9D60F8BDC046000100109A
:10285000C001001000000020C101001000ED00E0E8
:10286000002310B5294C82B0A367FFF719FF01229E
:10287000274B1A60636C012BFCD10322254B1A6095
:10288000224A936B012BFCD1013300930121224A90
:1028900022480433FFF718FE052301210093204A44
:1028A0002048FFF711FE0022022104201E4BFFF7F3
:1028B00091FD0022012105201C4BFFF78BFD00221A
:1028C000002107201A4BFFF785FD00220021082078
:1028D000174BFFF77FFD8023DB00009300220021D0
:1028E0000920134BFFF7FCFC0022104B00210620AF
:1028F000FFF770FD0420FFF7E1FD0E4900F05EF8E0
:1029000001000020FFF780FE02B010BD00800040F3
:102910003CB0004030B00040002F685900800240B9
:10292000008C864700C00240001BB7004059730767
:10293000006CDC0240420F0001480421014B1847A3
:102940003021002039260010014B5B681847000039
:1029500030210020044B5B68002903D100B5984763
:10296000203000BD0846184730210020124A936FDE
:102970009B0815D29066D166002905D0FFE7FFE7D6
:10298000FFE7516F106F704704B580210906C21729
:102990005140002800D0C84325F0D6F9002104BDDD
:1029A000F0B5146E556E576F166FFFF7E3FF1466A0
:1029B000556657671667F0BD000000D0114A936F47
:1029C0009B0813D210665166002905D0FFE7FFE788
:1029D000FFE7516F106F704704B5002801D0002049
:1029E000C04325F0B1F9002104BDC046F0B5146E16
:1029F000556E576F166FFFF7E5FF146655665767FC
:102A00001667F0BD000000D094464A4A926F9208C3
:102A1000624601D228E0C046F0B5464E346E756E6F
:102A2000776F366F00F020F89446424A1466556678
:102A3000576716676246F0BD94463E4A926F920809
:102A4000624601D254E0C046F0B53A4E346E756E1F
:102A5000776F366F00F04CF89446364A1466556628
:102A6000576716676246F0BD002B24DB11D00029A2
:102A70003EDA00B5C943404200D1013100F038F8D8
:102A8000C943404200D10131DB43524200D10133FE
:102A900000BD002AEBD1002801D1002905D000207B
:102AA000C90FC90701D1C043410800B525F01CF981
:102AB0000022002300BD00B500290ADBDB4352429F
:102AC00000D1013300F014F8C943404200D1013174
:102AD00000BDC943404200D10131DB43524200D125
:102AE000013300F005F8DB43524200D1013300BD51
:102AF000002923D1002B18D1002A0CD0BC460D4F41
:102B000038667A6600210023FFE7FFE7FFE77A6F68
:102B1000386F67467047002801D00748010000B5AC
:102B200025F0E2F80022002300BD02000B00002087
:102B300000217047000000D0FFFFFFFF002B00D0F6
:102B4000BFE0130C28D1002AE7D080B4114F3966BA
:102B50007A66FFE7FFE730B4040C7B6F396F1B0424
:102B600023433B667A66FFE7FFE7FFE7C04684B290
:102B70007B6F3D6F1B0423433B667A66FFE7FFE7ED
:102B8000C04600232C042D0C7A6F386F0019694160
:102B9000B0BC7047000000D0F0B594460025140E7C
:102BA00001D112020835140F01D112010435940F1E
:102BB00001D192000235D40F01D152000135D40B5E
:102BC0000134254F7C66254C3C660E0C93B2FFE722
:102BD000FFE7FFE73C6F6643360C7703BE4673435F
:102BE000DF0B5B04C01AB941130C7343DB18C91A1D
:102BF000CE086643360CB64493B273431F0F1B01D5
:102C0000C01AB941130C73431F0B1B05C01AB941FD
:102C1000860D8F023E436643360C092D24DB520A93
:102C20007243801A7703460A6643360C16235B1BF1
:102C3000DE40DF40BF1964466643821B70460435A0
:102C400006330100D940A840C01900D30131A24287
:102C500006D20023F0BD0000000000D0FFFFFFFF00
:102C6000121B0130F3D3F1E709277F1BFE406446B6
:102C7000A2B27243801A00D20139220C7243130CA3
:102C80001204821A99410B00704604351337010073
:102C9000F940A840801900D30131002B02D1A24293
:102CA0000AD2F0BD013000D30131121BFAD2013B30
:102CB000F8D1A24200D2F0BD013000D30131121B85
:102CC000F7E7F0B51C0C00D080E00CB400251C0A1E
:102CD00004D11B02160E3343120208351C0B04D11B
:102CE0001B01160F3343120104359C0B04D19B00CA
:102CF000960F334392000235DC0B02D192185B41F0
:102D000001351C00971864410134464F7C66464CDF
:102D10003C660E0CFFE7FFE7FFE7C0463C6F6643EB
:102D2000360C7703BE4697B27743C01B00D20139F9
:102D3000C01B00D201399FB27743C91BC91B170CB6
:102D400077437E04FF0B801BB941CE086643360CE7
:102D50000C2D33DBB644120B1F053A431B0B97B205
:102D60007743C01B00D201399FB27743C91B170CB0
:102D700077433E043F0C801BB941860D8F023E43D2
:102D8000664329277F1BFE400C3D7746AF40BF19A5
:102D900030BCA2B2ABB272437343801A9941220C89
:102DA0007243130C1204801A994102000B00013780
:102DB000001BA941F9D2781E0021F0BD0C277F1B12
:102DC000FE4077467F0BAF40FF19E0E700245D1C13
:102DD00007D0144F7D663966FFE7FFE7FFE7FFE79F
:102DE0003C6F95B29EB265436643401BB141150CE2
:102DF0001E0C6543664336042F0C3E432D04401BD6
:102E0000B141994204D202000B0020000021F0BD24
:102E100001D19042F7D3801A994101349942F2D3FB
:102E2000F6E70000000000D0FFFFFFFF48404140F0
:102E3000484018B4134B5B68019308BD18B4114B9C
:102E40001B68019308BD94460F4A926F920805D201
:102E5000624618B40B4BDB68019308BD0A4AF0B513
:102E6000146E556E576F166F6246FFF7F2FF064AF3
:102E70001466556657671667F0BD18B4014B9B681A
:102E8000019308BD580A0220000000D0FFB5504051
:102E90004240504059404B40594000E0FFB5154F6B
:102EA0004C00640D03D0BC4204D10C0314D80020A4
:102EB000090D09055C00640D03D0BC4204D11C035C
:102EC0000AD800221B0D1B0501264B4009D44B409C
:102ED00003D58B4200D18242FFBD9942FCD1904282
:102EE000FFBD0B43DB1803431343F5D0C943491817
:102EF000FFBD0000FF07000000B5FFF7CFFF01D0C6
:102F0000002000BD012000BD00B5FFF7C7FF8041D4
:102F100000BDC04600B5FFF7C1FF01D9002000BDCC
:102F2000012000BD00B5FFF7B1FF01D9002000BDB1
:102F3000012000BD00B5FFF7A9FF804100BD0120C1
:102F400040054A00121804D85A00121801D800206F
:102F500070470120704700000021002805D170470C
:102F6000C1174840401AFAD0C90713B5064B1B6871
:102F700098470CBC441CA2401005120B0349091BC6
:102F800009051943114310BDF01B02201F04000066
:102F900010B54C00620D8023D218DB00D21A5B05FD
:102FA0007E2A10DD9E3A13DACC170903490819432B
:102FB0005242D140640001341532202A05DAD04053
:102FC0000843604310BD002010BD0846604310BD9B
:102FD000C80FC018013810BD18B4024B5B6A0193CA
:102FE00008BD0000580A022018B4024BDB6D0193A3
:102FF00008BD0000580A0220C94211D300B549009B
:103000004908002200F014F8002904D400224042AC
:103010008A41114600BD80210906002000BD000044
:1030200018B4024BDB6E019308BD0000580A022061
:1030300018B4024B9B6F019308BD0000580A022090
:1030400018B4024BDB6F019308BD0000580A022040
:1030500010B50148FEF7FCF9E4800210132370B5A7
:103060001D78012D19D014DD1D48FFF7DDFA06008B
:103070001C48FFF7D9FA1C4C80223100200000F0D8
:103080009DFA022D06D01948FFF7C6FA184B1860B2
:1030900070BD154C174BA364F5E7174B124C23601A
:1030A0006360A360E36023616361A361E361236202
:1030B0006362A362E36223636363A363E3632364E2
:1030C0006364A364E36423656365A365E3652366C2
:1030D0006366A366E36623676367A367E367D9E76D
:1030E0005344000053460000580A02204C330000AD
:1030F000F01B02204D32001051300010244A4B00CA
:1031000094465B0D6344F0B504000D005A1C21DBAE
:103110005A1C35D0342B1CDA3326F61A3700203FE0
:103120001CD40121B9400B000121B1400A00121941
:103130006B41002F1EDB0224BC4021000224B4405E
:1031400020001600002544428D4126402B403000CF
:103150001900F0BDCB0F0020D907FAE7202101208C
:10316000891BC8400121B14003000A0012196B41BC
:10317000002FE0DA20240225A41BE5402900DDE72A
:10318000CB0F044ADB071A4300201100E1E7C046D9
:1031900001FCFFFF0000F03FF0B50B00490002000A
:1031A00085B0490D40D02748091837D4342610007F
:1031B000761A1900002E2FDD3100203938D4012075
:1031C0000024002588400094019501900121B14020
:1031D000009101204042C117009C019D00196941E6
:1031E0000D0000210400D80F002746428F410294B1
:1031F0000395029C34402000039C3C40210012189F
:103200004B4100980199002746428F4134001440F9
:1032100020003C001C40210005B0F0BD0020002132
:10322000002BF9DA0849F7E7DB0F0020D907F3E7AD
:1032300020210120891B00240025C840009401950D
:103240000190C3E701FCFFFF0000F0BF07B5604637
:1032500001880A0A0230DF2AFAD1C9B2820804D3EF
:10326000028840880004104300E00068014A505082
:10327000039007BD580A022051434343C9188C46A6
:10328000110C83B24B4310B4040C614392B280B270
:10329000504362431C041B0C001910BC5941130419
:1032A000120CC01851416144704700004840414031
:1032B00048400E4B5B6818470C4B1B6818470C4A7C
:1032C000936F9B0802D2094BDB681847F0B5146E68
:1032D000556E576F166FFFF7F6FF054A1466556671
:1032E00057671667F0BD014B9B681847F41B022017
:1032F000000000D007B548404140484001E0C046CA
:1033000007B54200120E03D0FF2A03D1420218D89B
:10331000C00DC0054A00120E03D0FF2A03D14A0295
:103320000FD8C90DC9050122414005D4414001D53E
:10333000814207BD884207BD0143491801D0C043FF
:10334000001807BD00B5FFF7DBFF01D0002000BD6E
:10335000012000BD00B5FFF7D3FF804100BDC0468E
:1033600000B5FFF7CDFF01D9002000BD012000BD51
:1033700000B5FFF7BFFF01D9002000BD012000BD4F
:1033800000B5FFF7B7FF804100BD491A002807D1FB
:1033900008467047C10FC90700D54042002817D022
:1033A000F44603B40B4B1B68984706BC81409E381B
:1033B0004042803107D20B0607D04900490AC005B8
:1033C0001043084360470130F8E7490A8902F5E7EE
:1033D00070470000F01B022041000A0E80231B06EC
:1033E0007E2A0BDD9E3A0BDAC117400240081843D3
:1033F0005242D04049000131484370470020704795
:10340000C00FC01801387047C0420DD300B540004E
:103410004008002100F00EF8002801D4404200BD11
:103420008020000600BD0000014BDB69184700004A
:10343000F41B0220014B5B6A18470000F41B0220BA
:10344000014BDB6F18470000F41B0220014BDB6CC3
:1034500018470000F41B022010B50148FDF7F8FFE3
:10346000DC820210132310B510481C78FFF7DCF83B
:103470000100012C0AD003DD80220D4800F09EF8E7
:103480000C48FFF7C9F80C4B186010BD084C5422CB
:10349000200000F093F82200084980322368002BB6
:1034A00000D1216004349442F8D1E9E7534600008A
:1034B000F41B02204C330000F01B02205934001092
:1034C00070B504000A4E300024F0AEFC20001EF05F
:1034D000ADF90500300024F0FFFB002D05D0054BB1
:1034E0002C199C4201D8280070BD0348FDF7B0FF9D
:1034F0007828002000000420FC800210F8B50600A7
:103500000C000C4F380024F08FFC210030001EF01E
:10351000DBF80500380024F0DFFB7443002D05D0F4
:10352000054B2C199C4201D82800F8BD0348FDF733
:103530008FFFC0467828002000000420FC80021085
:1035400070B505000C000B4E300024F06DFC280017
:1035500021001EF075FC0500300024F0BDFB002D9D
:1035600005D0054B2C199C4201D8280070BD03489A
:10357000FDF76EFF7828002000000420FC80021078
:1035800070B50400054D280024F04EFC20001EF00C
:1035900057F9280024F0A0FB70BDC0467828002011
:1035A00001480421014B1847402100203926001012
:1035B000014B1B681847000040210020014B5B684D
:1035C000184700004021002010B5FFF7D9FF10BDBB
:1035D0009A4200D2885470477047C046F8B55746A3
:1035E000DE464E464546E0B599460A9B07009A4698
:1035F0000D9B884693460B9C9B073BD10C9B9C42A2
:103600003DD21E1B0B9415000C005E442A004B4655
:10361000013521002020B847B542F7D1A0460B9CC8
:10362000002C20D0454636195346321B013C185D0C
:1036300029004B46B847002CF6D12B0035009846A0
:103640000D9B9B070FD55B46EC1A0C9BA3420AD936
:10365000464698462A004B46310020200134B847A0
:1036600001354445F6D32800F0BCBB46B246A94616
:10367000A046F8BD16001500002CD3D1E0E71600D7
:103680001500002CCED1EEE7F0B54546DE46574694
:103690004E46E0B585B09C4610AB1B78149F934610
:1036A00098460F9C129E139DBB074CD4002D42D10F
:1036B000B44248D201233B4099460E9B013B9A46B7
:1036C000302304E0524601341355A64201D9202C80
:1036D000F8D14B46002B00D183E00E9B013B99466D
:1036E0003023A54205D82EE04A4601341355AC429A
:1036F00029D0202CF8D1FB060CD57B0554D4A6424A
:1037000063D0A54261D0119B102B50D0022B57D013
:10371000202C32D1202301930E9B5A46009303970D
:1037200063460295FFF75AFF05B0F0BCBB46B246B0
:10373000A946A046F0BD01233B40994601233B42E8
:103740002AD1B442B9D3FB061CD57B05DBD4002CAF
:10375000D5D1119B102B5BD0119B022B6BD030234A
:1037600001240E9A13704346002B10D17B073ED5DF
:103770002B260E9A631C1655CDE723000134302604
:103780000E9AD654202CC5D04346002BEED02D26C1
:103790000E9A631C1655BEE74346002B2FD0013D01
:1037A000B44200D289E798E7119B102BB2D1BB0637
:1037B00037D5202CAED058230E9A13550134A7E7E5
:1037C000202CA7D02300013407E0631E012CC0D0B9
:1037D000119A102A31D0022AD1D162260E9AD654DB
:1037E00096E7FB06CED57B0500D488E78BE7230060
:1037F0003E0790D520260E9A013316558BE70C23F1
:103800003B405A1E9341ED1AB44200D255E764E79B
:10381000BB060ED478230E9A022413703023537003
:10382000A1E7202C00D175E778230E9A13550134B7
:103830006EE75823EFE76033EDE70E9AA61E914638
:103840004E44BA0602D55822327098E77822327078
:1038500095E7C04610B5002800D110BD01F068FD05
:10386000FBE7C0460B0010B5002802D049681B6872
:10387000984710BDF0B55746DE464E464546E0B582
:1038800095B083460F00924698461E9A1F9B1000E3
:103890001900209EFFF753FB002800D0EAE11E9894
:1038A0001F990122C54B5242FFF72EFB002800D082
:1038B00014E11E981F990122C14B5242FFF73AFBB7
:1038C000002800D0E9E01E981F990022BD4BFFF7A9
:1038D00031FB002800D0C8E01E981F990022BA4B87
:1038E000FFF712FB002800D0BFE01E981F990022AE
:1038F0000023FFF709FB002800D0E4E000230B932E
:10390000229B5B0500D406260024302307E0172104
:1039100006AA013452181355013E202C01D0092E5D
:10392000F5D81E981F99FFF733FBA84BF2009B18A0
:103930001A685B68050008920993FFF711FB020003
:103940000B001E981F99FFF774FA089A099BFFF75E
:1039500094FA06900791FFF73FFB8146FFF7FCFAC8
:1039600002000B0006980799FFF763FA0022984BB4
:1039700006900791FFF7DEFA002800D10DE1012340
:103980009C46E1444846FFF7E7FA02000B0008981E
:103990000999FFF7BFFA002802D0002399460135A4
:1039A000002E00D1D9E006954D46B94614E006AA8E
:1039B000944617230A216344280001341F19FEF797
:1039C000FDFF3031397028000A21013EFEF7F6FF75
:1039D000092D00D817E10500202CE8D14F46069D9F
:1039E00020240CAE06AA17239446634499465B46EE
:1039F000B34606930FE04B4628000A210134E6182F
:103A0000FEF7B4FF3031280031700A21FEF7AEFF17
:103A1000051E00D1E4E0202CEDD1069B5E469B46BE
:103A20000323229A1340012B18D1219B002B15D080
:103A30000B9B002B00D1FDE0219B013B2193202B10
:103A40000CD93023219A07E0172006A90134091860
:103A50000B55944200D3CCE0202CF5D1229B01944D
:103A60000393219B0096029322E0229B52460493EB
:103A7000219B3900039358461E9B1F9C029600937E
:103A80000194434600F04AF90400200015B0F0BC50
:103A9000BB46B246A946A046F0BD229B5B070FD4A9
:103AA00003224C4B22990192039121990093029198
:103AB0004346524639005846FFF790FD0400E4E7BC
:103AC0000422454BEEE71E9A1F9B00200021FFF7C2
:103AD000B0F901231E901F910B9311E7229B5446CE
:103AE0009B0711D1219B042B0ED9219B55469C4647
:103AF0005E46043C64442A004346013539002020D8
:103B0000B047A542F7D1B346344D26002B1F994646
:103B10005B46A3461C003200E87843463900013D6D
:103B2000A04701364D45F6D123005C469B46229BBB
:103B300004349B07A9D55346219AE31A9A42A4D983
:103B40005E4615002200434639002020B047534608
:103B50000134E31A9D42F5D897E72800FFF700FAF1
:103B600002000B001E981F99FFF763F90022184B03
:103B700006900791FFF7C8F90CAE002800D031E796
:103B8000069807990022124BFFF7D4F9002800D0BD
:103B900028E7012301359D4324E700220698079971
:103BA0000B4BFFF7B1F9002800D0F9E64B46002B8C
:103BB0005CD101239C46E144F2E6C046FFFFEFFFE3
:103BC000FFFFEF7F65CDCD4165CDCDC150D902104E
:103BD0000000E03F58810210508102106081021005
:103BE000069B5E469B460323229A1340012B00D17D
:103BF00081E0202C00D131E70B9B002B27D02D2317
:103C0000335501342AE74F46069D202C00D1E7E6C4
:103C10003022331907E0172006A9013409180A5584
:103C2000202C00D1DCE6A342F5D12E220CAE0134CB
:103C3000F254D7E60C23229A134257D0219B013B22
:103C40002193A34200D9FCE6202C00D106E7229B59
:103C50005B0703D52B2333550134FFE6229B1B075B
:103C600000D4FBE6202333550134F7E6DB0700D40C
:103C700096E69EE7229B55469B0711D1219B032B7D
:103C80000ED9219B54469C465E46033D6544220066
:103C90004346013439002020B047AC42F7D1B34647
:103CA000B9465F461C4EEC1C2A00B0784346494694
:103CB0000135B847013EAC42F6D1229BBB464F4688
:103CC0009B0700D4E1E65346219AE31A9A4200D8B2
:103CD000DBE65E4615002200434639002020B0474F
:103CE00053460134E31AAB42F5D3CEE6219BA342FF
:103CF00000D9A6E6B2E6219B002B00D179E70B9B09
:103D0000002B97D0219B013B21939C4200D298E647
:103D1000202C00D073E7A1E65C810210F0B5DE46EE
:103D200057464E464546E0B599B081468B46924689
:103D30009846229A239B10001900FFF700F90028EB
:103D400000D0CAE0229823990122824B5242FFF709
:103D5000F1F8002800D0C0E02298239901227E4B80
:103D60005242FFF7D1F8002800D0B6E022982399FC
:103D700000220023FFF7C8F8002800D0C9E1229BE9
:103D8000239C08930994089809998023269ADB00BC
:103D90001A400D928022269C1201144022000B949E
:103DA000269C07000E001C4200D0ADE00B00034330
:103DB00000D0D5E0002A00D00AE222000633249386
:103DC000022313400C930223134200D002E2259BEE
:103DD000042B00D20FE2043B0B93002304250A932B
:103DE0000022229823990023FFF78EF8002800D0A4
:103DF00003E25A4B269A134004930B9B0393249B94
:103E00000293089B099C00930194594643465246ED
:103E10004846FFF72FFD02002020269B1F27034066
:103E200059424B415B421840531C08935946434644
:103E30004530C8470A9AD317D4185C40D30F0A9369
:103E40006B1E0B9308AB9C460025674401E0202DB8
:103E50000FD020000A21FEF7B1FD01357E19303167
:103E6000317020000A21FEF7A9FD26000400092E6A
:103E7000EDD8052306930B9B594605930023049325
:103E80000A3303930A9B4846029310AB0093089AA7
:103E900043460195FFF7F8FB0C9B002B2DD05346B2
:103EA000C41A259BA34228D94D465F4681461E0071
:103EB000534639001A19202043460134A847A64228
:103EC000F6D8534648462599C21A0132002391423A
:103ED00000D386E1013018180FE0269B0493259B40
:103EE0000393249B0293229B239C009301944346BB
:103EF000524659464846FFF7BDFC19B0F0BCBB46D8
:103F0000B246A946A046F0BD01432BD10B9B22002F
:103F1000002B00D154E700230A93249B0A9A002423
:103F2000934200DD85E12298239900220023FEF7C9
:103F3000EBFF002800D035E1269B084A02941A4086
:103F40008023DB0013430493259B0393089B099C68
:103F5000CBE7C046FFFFEF7FFFFFEFFFFFF7FFFF5D
:103F600006232493B44B70009C46400D6044FEF73A
:103F7000F7FFB24AB24BFEF780FFB24AB24BFEF7F0
:103F80005DFF3603B14B360B334304000D003800A0
:103F900019000022AE4BFEF74CFFAE4AAE4BFEF7C7
:103FA0006CFF02000B0020002900FEF747FFFEF720
:103FB000EFFF0A90FEF7D4FFA84AA94B04000D00BA
:103FC000FEF75BFF0022A74BFEF738FFFEF7E0FF8E
:103FD000A54A0600A54B20002900FEF74EFF04006D
:103FE00030000D000C96FEF7BBFFA14AA14BFEF777
:103FF00044FF02000B0020002900FEF71AFF020018
:104000000B0006000F00FEF738FF320004000D0021
:104010003B0030003900FEF711FF00220E900F9197
:10402000954B20002900FEF70EFF0022934BFEF770
:1040300005FF02000B0020002900FEF704FF00220C
:104040008F4BFEF7FBFE02000B0020002900FEF75D
:10405000FAFE0D008021040032003B000020C9055B
:10406000FEF7E7FE02000B0020002900FEF7E6FE47
:1040700002000B000E980F99FEF7E5FE0022734B2D
:10408000FEF7DCFE7F4B0C9C9C466444002223051B
:10409000FEF7F3FE06000F0002000B0008980999D6
:1040A000FEF732FF00280AD00A9B3000013B39009E
:1040B0000A930022714BFEF7C6FE06000F000A9A13
:1040C000330063323900C62A12D80222269804250A
:1040D00010400B9A0C90002A25D1259B042B05D962
:1040E000002800D0A1E0259B043B0B93042541E070
:1040F0000222269810400B9A0C90002A12D1259B80
:10410000052B76D9002872D1259B0525053B0B93FD
:1041100034E0802212069446229B0893239B63443A
:10412000099330E605250B4300D1F6E60898099976
:10413000554A564BFEF7F6FE002808D00898099914
:104140000022534BFEF7E0FE002800D0E5E6249B5A
:10415000002B1CD00D9B002B19D0249B013B2493DA
:10416000259BAB4204D90C9B002B5AD002230C9305
:1041700000230B930A9B002B00D131E60898099984
:1041800032003B00FEF75FFE0890099128E6259B70
:10419000AB42EDD90C9B002B43D000230B93023391
:1041A0000C93E7E78020269B3A4A00061A408023BA
:1041B00084460294089C099D2900DB001343049364
:1041C000259B6144220003930B00009201938EE62D
:1041D0000524A8E600230B930A93023304250C93CD
:1041E000FEE553468C46013B63441B1A72E60223EC
:1041F0000C930525C2E70423EDE58020089E099F66
:10420000000639008446269A224B614413400493E9
:104210000B9B32000393249B02930B0000920193AB
:10422000F3E5259B5B1B0B93A4E7022304250C936A
:10423000A0E79C1A013C76E601FCFFFFFB799F504A
:104240001344D33FB3C8608B288AC63F0000F03FB9
:104250000000F83F61436F63A787D23F71A37909DC
:104260004F930A400000E03F1655B5BBB16B0240CA
:10427000EF39FAFE422EE63F00002C4000002440B9
:1042800000001840FF0300002D431CEBE2361A3FEC
:1042900080842E41FFF7FFFFF0B5DE4657464E46BD
:1042A0004546E0B5A5B01E002E9B92460C93CD4A24
:1042B000CD4B80468B461A60002900D1EAE10023ED
:1042C00030789946002800D1ECE1C84B4C460B935E
:1042D000C74B454657460E930AE0631C984622009A
:1042E0003B005946A84744463078002800D187E073
:1042F00001362528F1D108239A46043B9946023B12
:104300009846013B00229C460D943078711C0300B6
:10431000203BDBB2102B03D80B9C9B00E3589F463D
:104320000300303B89460D9C092B3AD9002398465F
:104330002A2800D1C1E000239A462E284BD0030042
:10434000683BDBB2122B1ED80E999B00CB589F46C0
:1043500063460E001A43D8E743460E001A43D4E7DB
:104360004B460E001A43D0E710230E001A43CCE749
:1043700053460E001A43C8E780235B001A43FF3BF5
:104380009C467078E1444E4667284FD82428A4D92B
:104390000300253BDBB2422B9FD896499B00CB58AC
:1043A0009F46002394461E0000E00131B3009B1994
:1043B0005B001E180878303E0300303B092BF4D90F
:1043C0000123624689469C460023B0469A460E0069
:1043D000E1442E28B3D13021802049428C46C000D0
:1043E000024370784B4684446146092900D86CE149
:1043F0002A2800D17AE101239C464E46E1449EE7FB
:10440000A146A846BA46CA4503D801235B42534495
:10441000994653464A4659460020C047200025B0D9
:10442000F0BCBB46B246A946A046F0BD0300693BBE
:10443000DBB20D930F2B00D94FE7012199408C4639
:104440006D49894661464B4619400F91634649467E
:104450000B4200D028E10D9B0A2B3AD0072B00D04D
:104460003BE70C9B190008C98846002B00D14BE1A3
:1044700021200243914614A98C461F220F21624439
:104480008C4651460D950C91A24615000F9902E0FD
:1044900020290CD0130064461C4020003730092C22
:1044A00000D80738013168541A090F2BF0D80C9B3B
:1044B00054460D9D9A460F9133E10C9B02CB8846E2
:1044C000002947DB0C9301239C4670784E46E1445B
:1044D00031E70C9B02CB14935346002B00D138E1FB
:1044E0009C4608780B000C908C44002801D100F009
:1044F00098FC89466146944603E05A780133002AC5
:1045000001D08B42F9D1494662465B1A0C900F9359
:10451000530500D520E10223180010400D901342EE
:1045200000D1CBE30D930B1BB1469A465E460C9827
:1045300022003B003100A84753460134185D002893
:10454000F6D1B3464E460D9B002B00D0C7E1149B1D
:104550000C93C9E60C9301239C4628384942024338
:10456000884670784E46E144E5E670786C2800D1C4
:104570007FE180235B001A43FF3B9C46E14402E756
:1045800080239B001A4301239C467078E144FAE69D
:104590007078682800D173E180231A437F3B9C46E2
:1045A000E144F0E6672800D103E1472800D15AE151
:1045B000452800D15AE10492072142460C9B039200
:1045C000073352468B43190002920CC9280000920F
:1045D00001930C9122003B005946FFF79FFB04001A
:1045E00082E6C04699420010A81B0220B0D70210F4
:1045F000F4D7021040D8021041900000462800D1A4
:10460000DBE00492072142460C9B0392073352469B
:104610008B43190002920CC92800009201930C915F
:1046200022003B005946FFF725F904005CE6631CB5
:10463000984622003B0059462520A847444653E6A9
:104640000C9B04330D93631C9946920700D422E11E
:104650000C9B2200187859463B00A8474346444427
:10466000012B00D885E23300B8462E005F462500B6
:104670004C46994622004346013439002020B04779
:10468000AC42F7D12C00BB46350047464E460D9B49
:104690000C9329E6DB4B3078984600239946002896
:1046A00000D012E60024AEE66F2800D188E000D8E2
:1046B0000BE31023782800D1CFE09A430A239C46CD
:1046C00000230F930A330D9380E05646B1008919F9
:1046D000490001330E181878303E0100303909299D
:1046E000F4D9B2461E000133994628E60C9B0236E7
:1046F00002CB8A46C9435046C917084082460C93EC
:104700003078731C99461AE6102310009843113331
:104710001843814680201300C0000340024200D1AC
:10472000A9E64B46069308230593534604931023AA
:104730000393002302930F9B220001931CAB009371
:1047400059463B002800FEF79FFF434604000C93A8
:10475000CAE501235B42C3E60F9B534501D953468B
:104760000F930223180010400D90134200D1B7E1BF
:104770000D93D1460B1B9A463300A1442E00220014
:104780004D460C98B9465F469B4608E04B463900BB
:10479000541CB0475346185D002877D0220095423C
:1047A000F4D15B46BB464F46A94635004C461E0039
:1047B000C9E680231B011A43FDE620231A4320E7A4
:1047C00008239C4600230F9308330D938023110088
:1047D000DB0019401A4200D116E10D239A43100064
:1047E000802302009B001A401492184200D0C2E1BC
:1047F000802302005B001A4091460C9A04320F920B
:10480000184200D0B7E2430600D59FE1030600D46A
:1048100019E30C9B1B880993002B00D0FCE110339B
:104820009843002900D1F7E10023994643460593B8
:10483000534604930D9B069003930023D2E058281F
:1048400008D0622867D102239C4600230F930233CD
:104850000D93BBE720231A43103B9C4600230F9384
:1048600010330D93B2E780231B011A4320231A4310
:10487000A1E6C0239B001A43F31C9946B07882E559
:10488000C0231A43F31C9946B0787CE535005E4698
:10489000BB464F4657E64346012B00D863E1631EF3
:1048A00043449A463300B9462E005F4655469B4620
:1048B000A24622004B46013439002020B047AC42CA
:1048C000F7D135005E46BB464F46A14654460C9B89
:1048D0004A46187859463B004444A847D7E6A146C3
:1048E0000F9B984500D832E64444E41A3300B8469A
:1048F0002E005F4625004C4699462200434601346F
:1049000039002020B047AC42F7D12C00BB4635001F
:1049100047464E461BE680231000DB0018401A4233
:1049200000D10FE1112118008A430D920D9A8023C6
:1049300011009B0019408C461A4269D18023110056
:104940005B00194089460C9904310F911A4200D03E
:10495000CAE113005B0600D5F0E013001B0600D48B
:1049600059E20C9B00229B5ED9175A184A4092B21A
:10497000D90F0C91002B00D1F9E1100014AA944634
:1049800042461F23149252466344A84616944D464D
:104990000400B946B2461F00159201E0202D0FD049
:1049A00020000A21FEF70AF801357E1930313170F6
:1049B00020000A21FEF702F826000400092EEDD897
:1049C000149B4F46A94645469846159B56469A461F
:1049D000169C0D9B069343460593534604930A2366
:1049E00003930C9B02934B4601931CAB2200009354
:1049F00059463B002800FEF747FE0F9B04000C932E
:104A000072E4C046D93500100C239A431000E7E643
:104A100007220C9B07339343013294469C44624621
:104A20000C920CCBD90F0F911100194300D191E0DA
:104A3000D917139112915140109113995940119126
:104A400010981199129A139B801A99411090119104
:104A500014AA0023944642469946149252461F33A4
:104A60006344A846B24616944E46109C119DB94622
:104A700015921F0001E0202E10D0200029000A22EC
:104A80000023FDF7D9FF013630322B00BA550D0057
:104A900022000400002BEED1092AECD8149B1094BC
:104AA000119545469846159B4F46B14656469A463F
:104AB000169C0D9B069343460593534604930A2385
:104AC00003930F9B02934B4601931CAB2200009370
:104AD00059463B002800FEF7D7FD0400FFF704FC11
:104AE0000F9B984500D8C1E18023DB000D9343461E
:104AF0000F9A1B199B1A994633002E004D46B94652
:104B00005F469B460C9122004B4601343900202021
:104B1000B047AC42F7D143460C9901330F930B7861
:104B200035000C935E46BB464F46002B00D10EE588
:104B30000D9B002B00D1F6E4002319E60C9B1B789B
:104B40001A0015E710239A430D92EFE60C9B1B7891
:104B5000099361E6002399460028AAD10022002388
:104B60001092119374E70C9B2200187859463B0071
:104B7000A8474C468BE50C9AFA3BFF3B07329A4319
:104B80000133994691444B460C9313685268159231
:104B90001A4306D11032904300220992002900D016
:104BA00081E06122810600D54122D2B20A9214AA84
:104BB00091460A9A00210A3A1492424617925246A6
:104BC00018925A460991B3461F311E000F9B494463
:104BD000BA4619941A950024674698468946159D49
:104BE00016901B920AE03032D2B24B4601341A556D
:104BF000A8454AD0202C4AD006000D003A000023D8
:104C000030002900FDF718FFD2B2092AEBD9149B16
:104C10009C466244D2B2E8E76123820600D5412374
:104C2000DBB20A3B0C93434614A91F228C46159312
:104C300053466244A046B2464C461797A946170011
:104C4000099D0D9E1490169308E03033DBB20134B9
:104C50003B55B5420ED3202C0CD005003100280066
:104C6000FDF7ACFECBB20929EFD90C9A9446634408
:104C7000DBB2ECE7159B4D46A14644469846169B91
:104C8000564614989A46179FD0E5B742B2D9179B5B
:104C900057469846189B5E469A461B9B09949B462E
:104CA0001698199C1A9D43460593534604930D9BF1
:104CB0000690039300230293099B05E70F9B9845F9
:104CC00000D914E701330F932DE410231100994309
:104CD0000D91692800D0BAE080231000DB00184055
:104CE0001A4200D122E61DE60C9B1B68DA0F110068
:104CF000002B00D18CE0DA179818504014AA914686
:104D000042461F23149252464B44A046A94616978A
:104D100004006546B2461F000C91159201E0202D5B
:104D20000FD020000A21FDF749FE01357E193031F0
:104D3000317020000A21FDF741FE26000400092EF3
:104D4000EDD8149B444698460C9BAC461900159B25
:104D500056464D469A46169F0D9B02910693434632
:104D60000593534604930A23039363463CE60028C5
:104D700000D02EE602E60C9B1B689946002B03D15F
:104D800010339843002938D16123820600D541238E
:104D9000DBB20A3B0C9343461693534614A91F22D9
:104DA0008C4617932B006244A0464D46B246189796
:104DB00099461700149C0D9E159008E03033DBB225
:104DC00001343B55B5420ED3202C0CD005003100E8
:104DD0002800FDF7F3FDCBB20929EFD90C9A9446D0
:104DE0006344DBB2ECE7169B149444469846179B49
:104DF00056464D469A461598189F43460593534686
:104E000004930D9B0690039300230293149BEBE500
:104E10000028A1D172E70C9B1B68D9175A184A4089
:104E2000A6E580231000DB0018409C460F901A4234
:104E30000FD00220030013400F93104219D000231B
:104E4000A1460F934CE50C9B1B680993E4E40A0010
:104E500034E40223180010400D90134200D03EE5C8
:104E60004346002B00D042E6FFF771FB01330F935E
:104E70007FE463460D93F3E70EB4012230B584B0AE
:104E800007AC08CC064D0100009428005242039460
:104E9000FFF702FA04B030BC08BC03B01847C046A4
:104EA000D135001010B50C0084B00394012402A980
:104EB00002900093034813006242FFF7EDF904B03B
:104EC00010BDC046653800100FB430B50C4985B030
:104ED00008AA08CA0D680392002D0CD00092012286
:104EE000084C5242200002A9A847012005B030BC5E
:104EF00008BC04B01847180000F064FA0020F5E779
:104F0000A81B02205538001010B5094A0300146888
:104F100084B0002C08D0012200910648524203A917
:104F2000A047012004B010BD00F04CFA0020F9E7C2
:104F3000A81B02205538001000BEFDE7094A0300F7
:104F40001068002805D00849C3188B4207D81360A1
:104F5000704706480449C31810608B42F7D90120F6
:104F60004042F5E7A0170220000004201C1D02208B
:104F700000207047012040427047C046030010B532
:104F800008001100002B05D1044B1A685B6800F083
:104F900071F910BD01204042FBE7C04648D702101E
:104FA0000300013B10B508001400012B06D80123B3
:104FB0000022210000F0E0F8200010BD0120404256
:104FC000FBE7C046012040427047C04601204042F6
:104FD0007047C046012040427047C046030002228D
:104FE00000209A424041704710B5FFF7A5FFC04628
:104FF00030B50D0083B01900002A0BD0074B084CC8
:105000000192009302002B002000FFF75DFF0120BA
:10501000FFF792FF034B1A00F1E7C04668810210C8
:1050200078810210DC82021070B5FDF755FB074D48
:10503000074EB54209D20024013E761BB60808CDC2
:10504000984723000134B342F9D170BDA47E021009
:10505000B47E0210030010B5080011001B689847C9
:1050600010BDC046F0B5C64600B5437D07000C0034
:105070001600002B46D0002A17DD0B780A2B24D00F
:1050800000239846012E13D001252900635C0135C9
:105090000A2B26D0B542F8D1464509DCA419013CBB
:1050A00023780D3B5A4253413B7580BCB846F0BD56
:1050B0004346E018A419F11A013C3B68984723784D
:1050C0000D3B5A4253413B75EFE7037D002BD7D18F
:1050D00002210F483B689847012EDFD001239846F4
:1050E000D2E7631E5B5C0D2BD4D0884504DA4346BF
:1050F000C91AE0183B689847022105483B68A84652
:105100009847C7E70368110020009847CDE7C046DD
:10511000A0D90210F0B5C6460B6806000C0000B519
:10512000802B06D05A1C2260E418267180BCB84639
:10513000F0BD0F4B1D68002D16D00B1D98460D4F6E
:1051400002E02D69002D0FD02B68002BF9D03B68B1
:10515000002B01D0AB42F4D1280041462268FFF772
:1051600081FF2D69002DEFD101220023DBE7C0462E
:10517000901702209C170220F0B54546DE464E46A9
:105180005746E0B583B091461C0080460D00FDF700
:1051900059F80023304A12184B41002B02DA012241
:1051A0002E4B52422E4908008A4622F005FE070087
:1051B0006B1C03D1404620F023FC0500002C27D0B7
:1051C000284E294B1C68002C18D04B46002B21D1AF
:1051D000264B994602E02469002C0FD02368002B4F
:1051E000F9D04B461B68002B01D09C42F3D1200024
:1051F0002A004146B0472469002CEFD1002F26D168
:10520000280003B0F0BCBB46B246A946A046F0BD9C
:10521000174ED6E7154B99460A239B4602E02469B0
:10522000002CEBD02368002BF9D04B461B68002BD9
:1052300001D0A342F3D12A0041462000B0476B467B
:105240005A462000DA71D91D0122B047E7E75046DF
:1052500022F042FDD4E7C04640420F00FFFFFF7F2F
:105260008028002065500010901702209C17022013
:1052700055500010F8B557464E464546DE4698460E
:105280001A4BE0B59B461A4B07000E0091469A4612
:10529000184D5B461C68002C03D115E02469002CD6
:1052A00012D02B68002B01D0A342F7D1A368002BAA
:1052B000F4D03100380098470028EFDDF0BCBB4641
:1052C000B246A946A046F8BD53465B6A984508D841
:1052D0005246926A4A4502D302204042EEE7984580
:1052E000FAD101200021FCF7B7FFD2E79017022086
:1052F000004005409C1702200A4A1368002B05D184
:105300000CE01A001B691032002B07D08342F8D141
:10531000002902D118691060196170470029FCD07A
:105320001060FAE79017022010B500F0F1FA10BDF6
:10533000F0B5CE46474680B583B06B460600DD1D0E
:105340002870FCF77FFF0023194A12184B41002BED
:1053500002DA0122174B524217490800884622F010
:105360002BFD164B81461C68002C14D0144F02E014
:105370002469002C0FD02368002BF9D03B68002B48
:1053800001D09C42F4D1200001222900FFF76AFEDF
:105390002469002CEFD14B46002B05D1300003B01F
:1053A000C0BCB946B046F0BD404622F095FCF5E7DA
:1053B00040420F00FFFFFF7F80280020901702204F
:1053C0009C17022070B5040020F01AFB0123010095
:1053D000050001222000FFF7CFFE084B1C68002CBF
:1053E00006D06368002B05D098472469002CF8D1BB
:1053F000280070BD2469002CF3D1F9E79017022032
:10540000F0B5CE46474680B5A3B004000D00FCF7CA
:1054100019FF0023274A12184B41002B02DA012200
:10542000254B5242254E300022F0C6FC00232200BC
:10543000019307002B00224801A9FFF733FD214B00
:10544000804699461C68019B002B1AD0002C2FD057
:105450001D4D02E02469002C0FD02368002BF9D0E9
:105460002B68002B01D0A342F4D12000019A02A99D
:10547000FFF7F8FD2469002CEFD14B461C68002390
:105480000193002C06D06368002B0BD09847246949
:10549000002CF8D1002F07D1404623B0C0BCB9463C
:1054A000B046F0BD2469ECE7300022F015FCF3E7CC
:1054B0000194EFE740420F00FFFFFF7F80280020AC
:1054C00015510010901702209C1702200FB400B550
:1054D00083B004A901C90191FFF792FF03B008BC92
:1054E00004B018477047C0460022014B1A7070473D
:1054F000171D02204B790020FF2B0BD18B79002B3D
:1055000008D1CB79012B05D1082A03D9024B8A781F
:1055100009301A707047C046171D022001207047DD
:1055200010B5012913D112495379107909781B025A
:1055300003430020994200D010BD5378012B08D0BE
:10554000022BF9D1642200210020FDF70FF8012081
:10555000F2E7D37891781B021943480ADB0501D49E
:10556000012040427F238A05D20F1940FDF786F8BB
:10557000171D0220004870476CDA021070B5050054
:1055800014000120012909D153780020012B05D1F5
:10559000637912791B021343072B00D070BD2100E1
:1055A0002800024A9F3301F055FAF7E7C4D90210E8
:1055B0000123037000487047A4D902104B780A7881
:1055C0001B0213438A7810B512041A43CB781B06CA
:1055D00013439622D200934200D010BD0022012036
:1055E00011004042FDF74AF8024B1860024B196067
:1055F0007047C046301702203417022010B5024B06
:105600001878FBF7FFFF10BD181D0220154B70B571
:105610001A68002A22D0EFF3108172B610680028B1
:10562000FCD0BFF35F8F00200F4A596010701B68D9
:10563000BFF35F8F186081F31088002400250B4EA4
:105640003078FBF7D3FF002804D10024002529007F
:10565000200070BD3078FBF7D5FFF8E7FA2400256D
:10566000A400ECE7D01B0220191D0220181D022007
:1056700070B5040000200E0001F00AFB002834D0B1
:10568000002001F01BFB00282FD0FCF7DBFD0023DE
:10569000174A12184B41002B16DB164D280022F03A
:1056A0008BFB002821D0002001F0F2FA00280FD156
:1056B00001200021404200F001FD03246442280043
:1056C00022F00AFB200070BD01220B4B5242E4E79E
:1056D000002001F0F3FA0028EAD021003200002077
:1056E00001F0F6FA041EEAD1E7E703246442E9E791
:1056F00040420F00F81C0220FFFFFF7F10B5FCF7AF
:10570000A1FD00230D4A12184B41002B02DA0122A1
:105710000B4B52420B4C200022F04EFB00280CD0C9
:1057200001200021404200F0C9FC002001F014FBE0
:105730000028F5D1200022F0CFFA10BD40420F0022
:10574000FFFFFF7FF81C0220F8B5DE46574680B504
:1057500005000C00FCF776FD0023364A12184B4179
:10576000002B02DA0122344B5242344908008A46A7
:1057700022F022FB002803D1C0BCBB46B246F8BDD4
:10578000002001F085FA00284AD00026002C43DDD5
:105790002B4B9B4614E0A919002001F017FB0700D2
:1057A00001200021404200F089FC002001F0D4FAE1
:1057B000FCF748FD224BF61918605960B4422BDD06
:1057C000002001F023FBA71B0200B84200DD3A00D5
:1057D000002AE0D101200021404200F06FFC0020AF
:1057E00001F0BAFA002001F053FA002814D000208A
:1057F00001F00CFB0028E1D1FCF724FD5B460F0013
:105800001A685B68002184460E4812184B419F427B
:1058100002D8D3D19445D1D9504622F05DFAABE7F6
:1058200000200021064B18605960504622F054FABF
:10583000A2E7C04640420F00FFFFFF7FF81C022096
:10584000500A022020A1070030B52A4C85B0002163
:10585000200022F089FA00281CD1274B1A68002A60
:1058600016D0EFF3108172B610680028FCD0BFF399
:105870005F8F01242148596002781B68D2B20470FE
:10588000BFF35F8F0020186081F31088002A17D0C3
:1058900005B030BD01200021404200F00FFC002087
:1058A00001F00CFA0500200022F016FA002DEFD0CE
:1058B000134B1B68002BEBD0124A10689847E7E7A0
:1058C000FCF7AAFA0400FCF7BDFCFA2200239200C0
:1058D00012184B41002B02DA01220B4B52420121DC
:1058E000029100210191094920000091FCF798FAEA
:1058F000CEE7C046F81C0220D01B0220191D022052
:105900003017022034170220FFFFFF7F0D560010D2
:10591000D02310B51B0684B01C68FCF77DFAFCF799
:1059200079FBA04202D0002004B010BD294B002119
:1059300000201B7801F05EFD27480368002B45D04E
:105940000120FBF7F7FFFF23244C25492070184066
:10595000FBF772FE20780121FBF736FE0520FBF7EE
:1059600059FE002824D1082200211E48FDF720FE00
:10597000FCF752FA0400FCF765FCFA2200239200BF
:1059800012184B41002B02DA0122174B524201211F
:10599000029100210191154920000091FCF740FA85
:1059A0000028C0DB12480121FFF7A6FC0120BBE75D
:1059B0000120FBF7D7FD0B4B01001800FCF71CF88A
:1059C000002205200B49FBF761FEEBE7FBF7F8FF30
:1059D000B6E7C04600FB0210F81C0220181D02208A
:1059E00049580010D01B0220FFFFFF7F0D5600100A
:1059F00050210020FD5500100048704708DB0210C0
:105A000000487047B4DA021010B504001748037854
:105A1000002B20D0002C06D1154B16484380063BA6
:105A2000FF3B038010BD052C1DD8134BA400E0588C
:105A300012490123013804E001330A800231142B9A
:105A40000DD0C25C002AF7D1C022DBB25B0092000D
:105A500008481343E5E7112100F01AF8DAE7CA23F2
:105A600004489B00DDE70020DCE7C046001D022063
:105A700009040000681702209CDA02106A1702204D
:105A800010B5024800F0D8F810BDC046E81B02204F
:105A900030B54B1E012900D1A7E0664A11780D09E7
:105AA0002C0030349F2900D9A2E00470012B00D1D2
:105AB000BEE00F21147821400C003034092900D9B0
:105AC00098E04470022B00D1B2E0547825092900F7
:105AD00030319F2C00D990E08170032B00D1A7E0DA
